:100000007811002011100000791000007910000014
:100010007910000079100000791000000000000045
:100020000000000000000000000000007910000047
:100030007910000000000000791000007910000025
:10004000791000007910000079100000791000008C
:10005000791000007910000079100000791000007C
:10006000791000007910000079100000791000006C
:10007000791000007910000079100000791000005C
:10008000791000007910000079100000791000004C
:10009000791000007910000079100000791000003C
:1000A000791000007910000079100000791000002C
:1000B000791000007910000079100000791000001C
:1000C000791000007910000079100000791000000C
:1000D00079100000791000007910000079100000FC
:1000E0007910000079100000000000007910000075
:1000F00079100000791000007910000079100000DC
:1001000079100000791000007910000079100000CB
:1001100000000000000000007910000079100000CD
:1001200079100000791000007910000079100000AB
:10013000791000007910000079100000791000009B
:1001400000000000000000000000000000000000AF
:10015000791000007910000079100000791000007B
:10016000000000000000000000000000000000008F
:10017000000000000000000000000000000000007F
:10018000000000000000000000000000000000006F
:10019000000000000000000000000000000000005F
:1001A000000000000000000000000000000000004F
:1001B000791000007910000079100000791000001B
:1001C000791000007910000079100000791000000B
:1001D00079100000791000007910000079100000FB
:1001E00079100000791000007910000079100000EB
:1001F00079100000791000007910000079100000DB
:100200007910000079100000791000000000000053
:1002100079100000791000007910000079100000BA
:1002200079100000791000007910000079100000AA
:10023000791000007910000079100000791000009A
:10024000791000007910000079100000791000008A
:10025000791000007910000079100000791000007A
:1002600079100000791000007910000010B5054CDD
:10027000237833B9044B13B10448AFF30080012352
:10028000237010BD7804002000000000001D000055
:10029000084B10B51BB108480849AFF30080084867
:1002A000036803B910BD074B002BFBD0BDE810401D
:1002B000184700BF00000000001D00007C04002063
:1002C000740400200000000080B582B000AF7860A8
:1002D000054B1B687A6802FB03F3184600F0CAF965
:1002E0000837BD4680BD00BF9804002080B582B0AD
:1002F00000AF7860054B1B687A6802FB03F3184671
:1003000000F0B8F90837BD4680BD00BF9404002056
:1003100080B500AF00F006F800F026F800F056F8BF
:1003200080BD00BF80B500AF0A4800F0A7F900F01B
:100330009FFA0246084BA3FB02239B09074A13605E
:10034000064B1B68064AA2FB03239B09054A136060
:1003500080BD00BF40054002F119760598040020D9
:10036000D34D62109404002080B500AF134800F014
:100370005BF90A2000F07EF91148E02100F02AFD27
:100380000F48202101220A2300F0B0FB0C48402135
:1003900001220A2300F0AAFB0948802101220A2336
:1003A00000F0A4FB074800F03FF90A2000F062F9D2
:1003B0000548072100F024FD80BD00BF020800F0C1
:1003C00000600040040800F00040024080B582B0A8
:1003D00002AF284800F028F90A2000F04BF926481F
:1003E00000F022F90A2000F045F9244B244A1A6053
:1003F000244A244B1B6843F001031360224A224B1A
:100400001B6843F001031360204A204B1B6843F034
:1004100001031360194B00221A600A2000F02AF928
:100420001B48002100F0E4FD1A4800F015FD1A48B1
:1004300000F012FD194800F00FFD1948072100F0E7
:10044000F5FC4FF47A73009310230193104815497B
:100450000022002300F042FD1148082100F0D0FCEA
:100460000F480821082200F09FFC094800F07CFD9D
:10047000BD4680BD050800F0011C00F0205502407B
:100480004B434F4C24550240205402401C5502401F
:10049000009000400208050002000500020405006B
:1004A00000500240801A060080B500AFFFF730FF11
:1004B00053480821002200F077FC5248AA2100F09E
:1004C00065FD5048504900F07BFDA020FFF70EFF6E
:1004D0004B480821082200F067FC2820FFF7F4FEB3
:1004E00047480821002200F05FFC4648002100F048
:1004F0004DFD4448454900F063FD4248002100F0AD
:1005000045FD4048424900F05BFD4FF4A570FFF700
:10051000EDFE3B480821082200F046FC3B4B1B68DF
:10052000C3F30D03184600F0EDFE02460B463949B1
:10053000C1E90023374BD3E90023104619464FF099
:100540000002354B00F054FF02460B463149C1E929
:100550000023304BD3E900231046194624A3D3E9E6
:10056000002301F06FF802460B462A49C1E9002337
:10057000264B5B68C3F30D03184600F0C3FE02462A
:100580000B462649C1E90023244BD3E9002310463A
:10059000194619A3D3E9002300F02AFF02460B46AF
:1005A0001E49C1E900231D4BD3E90023104619461B
:1005B0000FA3D3E9002301F045F802460B46174983
:1005C000C1E90023154BD3E90023104619464FF02B
:1005D0000002134B00F058FD02460B460F49C1E9DB
:1005E00000234FF49B70FFF781FE61E7AFF30080BB
:1005F0000000000000FFCF400000000000A06440A9
:1006000000500240009000403C000020DC0600202A
:10061000E006002038070020000059403007002085
:1006200000004440AFF3008080B483B000AF786036
:100630007B6803F47F431A0A0D4B134403F07042A6
:100640007B6803F47F43190A094B0B44C3F313037C
:100650005B011A437B68DBB29B00134343F00073DA
:100660001A46012313600C37BD465DF8047B7047C2
:1006700000E60F4001387FF4FDAF704780B586B0CB
:1006800000AF7860724B1B683B61724B1B68FB606C
:100690003B6943F400633B613B6923F480033B61A6
:1006A000FB6843F40063FB60694A3B691360694A75
:1006B000FB6813603B6903F00103002B26D07B68C5
:1006C00003F00103002B21D17B6863F001033A6939
:1006D00013403B61604B4FF480721A605C4A3B6987
:1006E00013604FF400237B6106E07B69013B7B6173
:1006F0007B69002B00D105E0584B1B6803F4807325
:10070000002BF2D07B69002B00D19EE03B6923F4E3
:10071000FE633B617B6803F4FE633A6913433B610C
:10072000FB6823F0004323F07003FB607A684C4BB6
:100730001340FA681343FB607B6803F00803DB0097
:10074000FA681343FB60424A3B691360414AFB6805
:1007500013603B6923F400533B617B6803F400534F
:100760003A6913433B61FB6823F40053FB607B68E9
:1007700003F40053FA681343FB60374B40221A60BE
:10078000FB68002B06DA334AFB681360304A3B698A
:10079000136005E02E4A3B6913602E4AFB68136024
:1007A0003B6923F0F86323F001033B617A682D4B2A
:1007B00013403A6913433B61FB6823F0FC53FB6031
:1007C0007B6803F0FC53FA681343FB607B6803F01B
:1007D0008043002B0ED03B6943F480033B61FB68F0
:1007E00023F48003FB607A681F4B1340FA681343BD
:1007F000FB6003E0FB6823F08043FB607B6803F44D
:100800000063002B18D14FF400437B6109E0174BC4
:100810001B6803F00103002B00D005E07B69013B5E
:100820007B617B69002BF2D13B6923F400633B6160
:10083000FB6823F40063FB60054A3B691360054ACB
:10084000FB6813601020FFF715FF1837BD4680BD09
:1008500060E00F4070E00F4058E00F4050E00F4064
:10086000300000800100C0070000404068E10F40F8
:1008700080B487B000AF714B1B687B61704B1B6805
:10088000BB60BB68002B03DABB6803F0700302E0B7
:100890007B6903F03003202B17D0202B04D8002BCA
:1008A00007D0102B0ED01BE0302B11D0702B13D0A3
:1008B00016E07B6903F4F8639B09624A52F823301F
:1008C0003B610FE0604B3B610CE0604B3B6109E03A
:1008D00047F230533B6105E04FF400433B6101E0D8
:1008E0000023A5E04FF0FF33FB60BB68002B04DA68
:1008F000BB6803F40063002B07D0BB68002B55DBFB
:100900007B6903F40063002B50D1514B1B687B6063
:10091000504B1B683B603B6803F4F8531B0A0133E0
:100920003A6802F01F02013202FB03F35B003A69EE
:10093000B2FBF3F33B617B68C3F309033A6902FB43
:1009400003F27968444B0B409B0A396901FB03F3BE
:100950009B0A13443B617B6943F480037B613F4BFB
:100960001B6803F47043B3F5804F16D0B3F5804F86
:1009700006D8B3F5005F0AD0B3F5405F0AD015E0A2
:10098000B3F5E04F0CD0B3F5104F0CD00EE0344B64
:10099000FB600BE0334BFB6008E0334BFB6005E092
:1009A000324BFB6002E0324BFB6000BF7B6903F41B
:1009B0008003002B35D0BB68002B29DABB6803F01D
:1009C0008043002B1AD0BB68002B04DABB6803F409
:1009D0000063002B07D0BB68002B0FDB7B6903F49F
:1009E0000063002B0AD13B695A00BB6803F0FE5339
:1009F0009B0D0133B2FBF3F33B6112E0BB6803F0E4
:100A0000FC53DB0D01333A69B2FBF3F33B6108E0C1
:100A10007B6903F0F063DB0D01333A69B2FBF3F35A
:100A20003B61FA683B699A4201D2FB683B613B69D2
:100A300018461C37BD465DF8047B704760E00F40E8
:100A400070E00F401C1900000024F40000093D0074
:100A500060E10F4064E10F4000FC0F0010E00F4028
:100A600000B4C40480F0FA02005A620240787D01AA
:100A7000002D310180B485B000AFF8600B467A607C
:100A8000FB72FB6803F5806319467B6803F0010382
:100A9000002B06D0FB6803F580631A68FB7A1343CA
:100AA00006E0FB6803F580631B68FA7AD2431340C3
:100AB0000B60FB6803F5846319467B6803F002034F
:100AC000002B06D0FB6803F584631A68FB7A134396
:100AD00006E0FB6803F584631B68FA7AD24313408F
:100AE0000B601437BD465DF8047B704780B487B057
:100AF00000AFF8607A603B600B46FB720023FB7529
:100B00002CE0FA7AFB7D42FA03F303F00103002B99
:100B100021D0FB6803F6C4731846FB6803F6C47360
:100B20001B68FA7D5200032101FA02F2D2431340FE
:100B30000360FB6803F6C4731846FB6803F6C473CE
:100B40001A687B685B0903F00301FB7D5B0001FA17
:100B500003F313430360FB7D0133FB75FB7D072B20
:100B6000CFD9FB6803F5A06319467B6803F0010346
:100B7000002B06D0FB6803F5A0631A68FB7A1343C9
:100B800006E0FB6803F5A0631B68FA7AD2431340C2
:100B90000B60FB6803F2045319467B6803F0020301
:100BA000002B06D0FB6803F204531A68FB7A134348
:100BB00006E0FB6803F204531B68FA7AD243134041
:100BC0000B60FB6803F5A16319467B6803F004031F
:100BD000002B06D0FB6803F5A1631A68FB7A134368
:100BE00006E0FB6803F5A1631B68FA7AD243134061
:100BF0000B60FB6803F5A36319467B6803F00803E9
:100C0000002B06D0FB6803F5A3631A68FB7A134335
:100C100006E0FB6803F5A3631B68FA7AD24313402E
:100C20000B60FB6803F23C5319467B6803F010032A
:100C3000002B06D0FB6803F23C531A68FB7A13437F
:100C400006E0FB6803F23C531B68FA7AD243134078
:100C50000B60FB6803F20C5319463B6803F0010379
:100C6000002B06D0FB6803F20C531A68FB7A13437F
:100C700006E0FB6803F20C531B68FA7AD243134078
:100C80000B60FB6803F5A26319463B6803F002039F
:100C9000002B06D0FB6803F5A2631A68FB7A1343A6
:100CA00006E0FB6803F5A2631B68FA7AD24313409F
:100CB0000B60FB6803F2145319463B6803F004030E
:100CC000002B06D0FB6803F214531A68FB7A134317
:100CD00006E0FB6803F214531B68FA7AD243134010
:100CE0000B60FB6803F21C5319463B6803F00803D2
:100CF000002B06D0FB6803F21C531A68FB7A1343DF
:100D000006E0FB6803F21C531B68FA7AD2431340D7
:100D10000B60FB6803F2445319463B6803F400730D
:100D2000002B06D0FB6803F244531A68FB7A134386
:100D300006E0FB6803F244531B68FA7AD24313407F
:100D40000B60FB6803F5A86319463B6803F4407326
:100D5000002B06D0FB6803F5A8631A68FB7A1343DF
:100D600006E0FB6803F5A8631B68FA7AD2431340D8
:100D70000B60FB6803F5A56319463B68002B06D1A1
:100D8000FB6803F5A5631A68FB7A134306E0FB686A
:100D900003F5A5631B68FA7AD24313400B601C3736
:100DA000BD465DF8047B704780B483B000AF7860C7
:100DB0000B46FB701346BB70FB789B001A467B68A2
:100DC00013441A46BB7813600C37BD465DF8047BAC
:100DD000704700BF80B582B000AF78600B46FB70F3
:100DE000FB78786819460022FFF744FEFB787868A4
:100DF000194601220823FFF779FE0837BD4680BD5A
:100E000080B582B000AF78600B46FB70FB787868E5
:100E1000194601220823FFF769FEFB787868194616
:100E20000122FFF727FE0837BD4680BD80B582B09E
:100E300000AF78600B46FB70FB7878681946022299
:100E4000FFF718FEFB787868194601220823FFF7A0
:100E50004DFE0837BD4680BD80B485B000AF7860D8
:100E60007B681B0CDBB2FB601A4B1B68FA68012124
:100E700001FA02F21340002B07D0FB685B0001333C
:100E8000154A52F82330FB6005E0FB685B00124A0C
:100E900052F82330FB607B681B0ADBB2BB60FB6847
:100EA00003F22C531846FB6803F22C531B68BA68F4
:100EB0000F2101FA02F2D2431A407B6803F00F01BE
:100EC000BB6801FA03F3134303601437BD465DF8B2
:100ED000047B70476CE00F40681C000080B48BB04E
:100EE00000AFF860B9607A603B603B68002B01D1CD
:100EF000002300E004233B62FB6804331A463B6A8C
:100F00001360BA683B6BB2FBF3F3FB6100237B62B7
:100F10007B6A02337B62FA697B6AB2FBF3F3013BC3
:100F2000BB61BB69FF2BF3D8FB6810331A467B6AA1
:100F300013607B689B01DBB27B617B6803F030034D
:100F40007B60BB691A027B691A437B681A437B6B1F
:100F5000013B13433B62FB683A6A1A602C37BD467B
:100F60005DF8047B704700BF80B483B000AF786049
:100F70007B6804331A467B6804331B6843F0020322
:100F800013600C37BD465DF8047B704780B483B0B6
:100F900000AF786039607B680C331B6803F0020394
:100FA000002B06D07B6808331A463B681360012388
:100FB00000E0002318460C37BD465DF8047B7047FF
:100FC00080B483B000AF7860396000BF7B680C33B9
:100FD0001B6803F00403002BF8D07B6808331A6801
:100FE0003B681A600C37BD465DF8047B704700BF54
:100FF00080B483B000AF786039607B6803F6C87353
:101000001A463B6813600C37BD465DF8047B704799
:1010100080B582B000AF124B7B60124B3B6007E0A3
:101020003B681A1D3A607A68111D796012681A606F
:101030003B680D4A9342F3D30D480E494FF000022E
:101040008842B8BF40F8042BFADB084A074B1B68FC
:1010500043F470031360FFF727FA0837BD4680BDDD
:10106000001D0000000000207804002088ED00E052
:10107000780400207409002080B400AFFEE700BFB0
:1010800081F0004102E000BF83F0004330B54FEA39
:1010900041044FEA430594EA050F08BF90EA020FA6
:1010A0001FBF54EA000C55EA020C7FEA645C7FEA39
:1010B000655C00F0E2804FEA5454D4EB5555B8BF5C
:1010C0006D420CDD2C4480EA020281EA030382EACD
:1010D000000083EA010180EA020281EA0303362D5F
:1010E00088BF30BD11F0004F4FEA01314FF4801C32
:1010F0004CEA113102D0404261EB410113F0004F44
:101100004FEA03334CEA133302D0524263EB4303FA
:1011100094EA050F00F0A780A4F10104D5F1200E98
:101120000DDB02FA0EFC22FA05F2801841F10001F3
:1011300003FA0EF2801843FA05F359410EE0A5F1C7
:1011400020050EF1200E012A03FA0EFC28BF4CF0F8
:10115000020C43FA05F3C01851EBE37101F00045AE
:1011600007D54FF0000EDCF1000C7EEB00006EEBBB
:101170000101B1F5801F1BD3B1F5001F0CD3490845
:101180005FEA30004FEA3C0C04F101044FEA44529C
:1011900012F5800F80F09A80BCF1004F08BF5FEA23
:1011A000500C50F1000041EB045141EA050130BD03
:1011B0005FEA4C0C404141EB010111F4801FA4F1A6
:1011C0000104E9D191F0000F04BF01460020B1FAFB
:1011D00081F308BF2033A3F10B03B3F120020CDA33
:1011E0000C3208DD02F1140CC2F10C0201FA0CF011
:1011F00021FA02F10CE002F11402D8BFC2F1200C76
:1012000001FA02F120FA0CFCDCBF41EA0C0190402B
:10121000E41AA2BF01EB0451294330BD6FEA040474
:101220001F3C1CDA0C340EDC04F11404C4F120025F
:1012300020FA04F001FA02F340EA030021FA04F371
:1012400045EA030130BDC4F10C04C4F1200220FAC8
:1012500002F001FA04F340EA0300294630BD21FA06
:1012600004F0294630BD94F0000F83F4801306BFCC
:1012700081F480110134013D4EE77FEA645C18BFC0
:101280007FEA655C29D094EA050F08BF90EA020F57
:1012900005D054EA000C04BF1946104630BD91EA4F
:1012A000030F1EBF0021002030BD5FEA545C05D152
:1012B0004000494128BF41F0004130BD14F5800491
:1012C0003CBF01F5801130BD01F0004545F0FE4105
:1012D00041F470014FF0000030BD7FEA645C1ABF3A
:1012E000194610467FEA655C1CBF0B46024650EA71
:1012F000013406BF52EA033591EA030F41F400219D
:1013000030BD00BF90F0000F04BF0021704730B522
:101310004FF4806404F132044FF000054FF00001F7
:1013200050E700BF90F0000F04BF0021704730B5B8
:101330004FF4806404F1320410F0004548BF40428D
:101340004FF000013EE700BF42004FEAE2014FEAE2
:1013500031014FEA02701FBF12F07F4393F07F4FBD
:1013600081F06051704792F0000F14BF93F07F4FEF
:10137000704730B54FF4607401F0004521F0004132
:1013800020E700BF50EA010208BF704730B54FF0B8
:1013900000050AE050EA010208BF704730B511F0BD
:1013A000004502D5404261EB41014FF4806404F1F5
:1013B00032045FEA915C3FF4DCAE4FF003025FEA77
:1013C000DC0C18BF03325FEADC0C18BF033202EBFF
:1013D000DC02C2F1200300FA03FC20FA02F001FA59
:1013E00003FE40EA0E0021FA02F11444C1E600BFF8
:1013F00070B54FF0FF0C4CF4E06C1CEA11541DBFAB
:101400001CEA135594EA0C0F95EA0C0F00F0DEF875
:101410002C4481EA030621EA4C5123EA4C5350EA5A
:10142000013518BF52EA033541F4801143F48013AB
:1014300038D0A0FB02CE4FF00005E1FB02E506F03C
:101440000042E0FB03E54FF00006E1FB03569CF091
:10145000000F18BF4EF0010EA4F1FF04B6F5007F97
:1014600064F5407404D25FEA4E0E6D4146EB060609
:1014700042EAC62141EA55514FEAC52040EA5E5092
:101480004FEACE2EB4F1FD0C88BFBCF5E06F1ED83C
:10149000BEF1004F08BF5FEA500E50F1000041EB73
:1014A000045170BD06F0004646EA010140EA020020
:1014B00081EA0301B4EB5C04C2BFD4EB0C0541EA42
:1014C000045170BD41F480114FF0000E013C00F357
:1014D000AB8014F1360FDEBF002001F0004170BD7B
:1014E000C4F10004203C35DA0C341BDC04F1140494
:1014F000C4F1200500FA05F320FA04F001FA05F220
:1015000040EA020001F0004221F0004110EBD370EC
:1015100021FA04F642EB06015EEA430E08BF20EA18
:10152000D37070BDC4F10C04C4F1200500FA04F3BB
:1015300020FA05F001FA04F240EA020001F000414D
:1015400010EBD37041F100015EEA430E08BF20EAC0
:10155000D37070BDC4F1200500FA05F24EEA020E08
:1015600020FA04F301FA05F243EA020321FA04F037
:1015700001F0004121FA04F220EA020000EBD370EE
:101580005EEA430E08BF20EAD37070BD94F0000FEE
:101590000FD101F00046400041EB010111F4801F22
:1015A00008BF013CF7D041EA060195F0000F18BFD3
:1015B000704703F00046520043EB030313F4801F0F
:1015C00008BF013DF7D043EA0603704794EA0C0FC9
:1015D0000CEA135518BF95EA0C0F0CD050EA4106DF
:1015E00018BF52EA4306D1D181EA030101F000415C
:1015F0004FF0000070BD50EA410606BF1046194684
:1016000052EA430619D094EA0C0F02D150EA01368F
:1016100013D195EA0C0F05D152EA03361CBF1046D0
:1016200019460AD181EA030101F0004141F0FE416F
:1016300041F470014FF0000070BD41F0FE4141F4F3
:10164000780170BD70B54FF0FF0C4CF4E06C1CEAF3
:1016500011541DBF1CEA135594EA0C0F95EA0C0FA8
:1016600000F0A7F8A4EB050481EA030E52EA033563
:101670004FEA013100F088804FEA03334FF0805584
:1016800045EA131343EA12634FEA022245EA1115B1
:1016900045EA10654FEA00260EF000419D4208BF62
:1016A000964244F1FD0404F5407402D25B084FEA0F
:1016B0003202B61A65EB03055B084FEA32024FF4BB
:1016C00080104FF4002CB6EB020E75EB030E22BF18
:1016D000B61A754640EA0C005B084FEA3202B6EBD8
:1016E000020E75EB030E22BFB61A754640EA5C0087
:1016F0005B084FEA3202B6EB020E75EB030E22BF17
:10170000B61A754640EA9C005B084FEA3202B6EB17
:10171000020E75EB030E22BFB61A754640EADC00D6
:1017200055EA060E18D04FEA051545EA16754FEA38
:1017300006164FEAC30343EA52734FEAC2025FEA56
:101740001C1CC0D111F4801F0BD141EA00014FF0E5
:1017500000004FF0004CB6E711F4801F04BF0143B6
:101760000020B4F1FD0C88BFBCF5E06F3FF6AFAED2
:10177000B5EB030C04BFB6EB020C5FEA500C50F162
:10178000000041EB045170BD0EF0004E4EEA1131E5
:1017900014EB5C04C2BFD4EB0C0541EA045170BDEC
:1017A00041F480114FF0000E013C90E645EA060E30
:1017B0008DE60CEA135594EA0C0F08BF95EA0C0F5E
:1017C0003FF43BAF94EA0C0F0AD150EA01347FF4A6
:1017D00034AF95EA0C0F7FF425AF104619462CE77D
:1017E00095EA0C0F06D152EA03353FF4FDAE1046E0
:1017F000194622E750EA410618BF52EA43067FF431
:10180000C5AE50EA41047FF40DAF52EA43057FF4C0
:10181000EBAE12E7024B13B1024800F005B8704777
:101820000000000035180000014600200246034673
:1018300000F016B838B5084B084DED1AAC1018BFBB
:10184000ED1805D0013C55F8043D9847002CF9D11E
:10185000BDE8384000F05CB870040020740400203B
:101860002DE9F047254C2568D5F8484106468846BD
:1018700092469946CCB360681F2818DC431C7EB1A1
:1018800004EB80050121C5F888A0D4F8887101FA1D
:1018900000F21743022EC4F88871C5F808911ED0D3
:1018A0000230636044F820800020BDE8F087144BCC
:1018B00003B34FF4C870AFF300800446D0B1D5F83D
:1018C0004831002780E88800C5F8484138460123A0
:1018D000C4F88871C4F88C71002EE1D0D0E7D4F838
:1018E0008C110A43C4F88C21DAE705F5A674C5F813
:1018F0004841C0E74FF0FF30BDE8F087FC1C000016
:1019000000000000F8B500BFF8BC08BC9E46704758
:10191000F8B500BFF8BC08BC9E46704740420F00B7
:1019200000201C0080841E0000802500999E360047
:101930000040380000093D0000803E0000004B00E0
:10194000404B4C0000204E00808D5B0000C05D00CD
:101950000080700000127A0000007D0080969800E0
:10196000001BB7000080BB00C0E8CE00647ADA003C
:101970000024F4000000FA0080A81201002D3101BB
:1019800000366E0140787D0140000000000000003C
:101990003E00080000000000A0000000020000005F
:1019A00034540100000000002B700600000000000D
:1019B00028000000000000002700010000000000D7
:1019C00020000000000000005000000002000000A5
:1019D0001AAC00000000000017940900000000008D
:1019E0001698050000000000140000000000000030
:1019F0001380080000000000A000000008000000A4
:101A0000100000000000000028000000020000009C
:101A10004000000004000000600000000000000022
:101A20005D000C00000000005000000000000000FD
:101A30004E0002000000000041AC01000000000068
:101A40003C000000000000003A8009000000000097
:101A5000300000000000000028000000000000002E
:101A600027000100000000002360060000000000C5
:101A700021600800000000001E00000000000000BF
:101A80001DC0040000000000500000000200000023
:101A9000180000000000000014000000000000001A
:101AA00060000000040000000024F400300030005A
:101AB000005A62029100910000879303D200D20085
:101AC00000B4C4041301130100E1F50554015401ED
:101AD000000E27079501950100D0121300389C1CB9
:101AE0000040004010000000008005401000000091
:101AF000005000401100000000900540110000005F
:101B0000006000401200000000A00540120000002C
:101B1000007000401300000000B0054013000000FA
:101B2000004002401400000000C005401400000006
:101B3000005002402E00000000D005402E000000A2
:101B4000006002402F00000000E005402F00000070
:101B5000007002403000000000F00540300000003E
:101B600000D0034046000000000006404600000090
:101B7000001006404700000000200640480000001A
:101B8000003006407F00000000400640800000005A
:101B90000050064084000000006006408C000000F9
:101BA00018000000004000401000000000800540C8
:101BB000100000000050004011000000009005409F
:101BC00011000000006000401200000000A005406D
:101BD00012000000007000401300000000B005403B
:101BE00013000000004002401400000000C0054047
:101BF00014000000005002402E00000000D00540FC
:101C00002E000000006002402F00000000E00540B0
:101C10002F000000007002403000000000F005407E
:101C20003000000000D003404300000000000640E8
:101C30004300000000100640440000000020064061
:101C400045000000003006405800000000400640FB
:101C500059000000005006405C0000000060064093
:101C600064000000180000000040004000800540B3
:101C700000500040009005400060004000A005407A
:101C80000070004000B005400040024000C0054028
:101C90000050024000D005400060024000E00540D6
:101CA0000070024000F0054000D0034000000640F4
:101CB00000100640001006400020064000200640AC
:101CC000003006400030064000400640004006401C
:101CD000005006400050064000600640006006408C
:101CE00000700640007006400080064000800640FC
:101CF0000090064000900640430000004000002095
:101D000001000000000000000000000000000000D2
:101D100000000000000000000000000000000000C3
:101D200000000000000000000000000000000000B3
:101D300000000000000000000A000000AA000000EF
:101D4000000000002C03002094030020FC0300206E
:101D50000000000000000000000000000000000083
:101D60000000000000000000000000000000000073
:101D700000000000F81C000000000000000000004F
:101D80000000000000000000000000000000000053
:101D90000000000000000000000000000000000043
:101DA0000000000000000000000000000000000033
:101DB0000000000000000000000000000000000023
:101DC0000000000000000000000000000000000013
:101DD0000000000000000000000000000000000003
:101DE00000000000000000000100000000000000F2
:101DF0000E33CDAB34126DE6ECDE05000B000000B7
:101E000000000000000000000000000000000000D2
:101E100000000000000000000000000000000000C2
:101E200000000000000000000000000000000000B2
:101E300000000000000000000000000000000000A2
:1021600000000000000000001518000091020000AF
:082170006D02000000000000F8
:00000001FF
